:020000040000fa
:080000000002040000000000f2
:020000040000fa
:10000800aa020000aa020000aa020000aa02000038
:10001800aa020000aa020000aa020000aa02000028
:10002800aa020000aa020000aa0200009a02000028
:10003800aa020000aa020000aa020000aa02000008
:10004800aa020000aa020000aa020000aa020000f8
:10005800aa020000aa020000aa020000aa020000e8
:10006800aa020000aa020000aa020000aa020000d8
:10007800aa020000aa020000aa020000aa020000c8
:10008800aa020000aa020000aa020000aa020000b8
:10009800aa020000a2020000aa020000aa020000b0
:1000a800aa020000aa020000aa020000aa02000098
:1000b800aa020000aa020000aa020000aa02000088
:1000c800aa020000aa020000aa020000aa02000078
:1000d800aa020000aa020000aa020000aa02000068
:1000e800aa020000aa020000aa020000aa02000058
:1000f800aa020000aa020000aa020000aa02000048
:10010800aa020000aa020000aa020000aa02000037
:10011800aa020000aa020000aa020000aa02000027
:10012800aa020000aa020000aa020000aa02000017
:10013800aa020000aa020000aa020000aa02000007
:10014800aa020000aa020000aa020000aa020000f7
:10015800aa020000aa020000aa020000aa020000e7
:10016800aa020000aa020000aa020000aa020000d7
:10017800aa020000aa020000aa020000aa020000c7
:10018800aa020000aa020000aa020000aa020000b7
:10019800aa020000aa020000aa020000aa020000a7
:1001a800aa020000aa020000aa020000aa02000097
:1001b800aa020000aa020000aa020000aa02000087
:1001c800aa020000aa020000aa020000aa02000077
:1001d800aa020000aa020000aa020000aa02000067
:1001e800aa020000aa020000aa020000aa02000057
:0801f800aa020000aa020000a7
:020000040000fa
:10020800aa020000aa020000aa020000aa02000036
:10021800aa020000aa020000aa020000aa02000026
:10022800aa020000aa020000aa0200009a02000026
:10023800aa020000aa020000aa020000aa02000006
:10024800aa020000aa020000aa020000aa020000f6
:10025800aa020000aa020000aa020000aa020000e6
:10026800aa020000aa020000aa020000aa020000d6
:10027800aa020000aa020000aa020000aa020000c6
:10028800aa020000aa020000aa020000aa020000b6
:10029800aa020000a2020000aa020000aa020000ae
:1002a800aa020000aa020000aa020000aa02000096
:1002b800aa020000aa020000aa020000aa02000086
:1002c800aa020000aa020000aa020000aa02000076
:1002d800aa020000aa020000aa020000aa02000066
:1002e800aa020000aa020000aa020000aa02000056
:1002f800aa020000aa020000aa020000aa02000046
:10030800aa020000aa020000aa020000aa02000035
:10031800aa020000aa020000aa020000aa02000025
:10032800aa020000aa020000aa020000aa02000015
:10033800aa020000aa020000aa020000aa02000005
:10034800aa020000aa020000aa020000aa020000f5
:10035800aa020000aa020000aa020000aa020000e5
:10036800aa020000aa020000aa020000aa020000d5
:10037800aa020000aa020000aa020000aa020000c5
:10038800aa020000aa020000aa020000aa020000b5
:10039800aa020000aa020000aa020000aa020000a5
:1003a800aa020000aa020000aa020000aa02000095
:1003b800aa020000aa020000aa020000aa02000085
:1003c800aa020000aa020000aa020000aa02000075
:1003d800aa020000aa020000aa020000aa02000065
:1003e800aa020000aa020000aa020000aa02000055
:0803f800aa020000aa020000a5
:020000040000fa
:10040000cf8020000e7f24000e0188000000000035
:10041000000020000000e000020032000001200087
:10042000200288000c00070060cb200001002000a3
:1004300011000700000020000000e0000200320070
:100440000000020000000000f809020000000000a7
:100450000040da000000fe004440a9000000200037
:100460000000e0000300320000002000a00188002e
:100470004440a80000000600910188008000780038
:100480000000eb0015003700e280400032a0b4000d
:100490009101ba00e280400032a0b4009102ba009b
:1004a000e280400032a0b4000002eb00472bde00e7
:1004b000f507b200602ce10004003a000059eb009f
:1004c0008301e900fdff3e00040037006128e100e0
:1004d000010032000082eb00040007001101ba00a5
:1004e0000200e000e8ff3a00000006003159ba00bf
:1004f0008301e9000c0032002159ba008301e900b0
:10050000080032000400e00003003a00e2804000ee
:1005100032a0b400f5ff370011d9ba008301e90019
:10052000faff3a008100e800e180400032a0b40008
:10053000000006000000fa008460a9000080fa00b4
:10054000004006000000fa008680a9000080fa0042
:10055000004006000040da000000fe0003f0a200a8
:10056000889fbe008a9fbe008c1f7800f5000700a0
:10057000fc0033006450e1004f0032006420e100d1
:100580005200320003826c0007003b000905d000d6
:100590000306d000820f54000c065d0002003900f3
:1005a0000200320089017800030678008582550038
:1005b00004003d000003fd008103fd008502ea0008
:1005c0008b854200840f720002003b006000100027
:1005d000e08018006011b8000005eb007a28e10007
:1005e0000a00390006007800c75ddd00f707b20099
:1005f000878075002d003700828171000a01780024
:10060000610560008180d1000080d3008502e9008f
:10061000f9ff3b00060440008784480002003b00cd
:1006200060041400e0841c000988a3000700320065
:100630008a81710082817100610164008904d100a6
:100640000884d3008b05e800170037000978a30061
:1006500013003a000b00e000130034008b05e900a2
:100660000804440089844c000a4474000978a300fb
:100670000d003a000b00e000070034008b05e90094
:100680000804440089844c0001003a000b0020005b
:100690000978a300f7ff32000001eb0002003700e9
:1006a000828171000a0178006b0007000cf0a7003e
:1006b00001f0a000b40037006420e10002003a001d
:1006c000838f6c00b40033000801be000200be003e
:1006d000ad003700889fbe008a9fbe008c1f780047
:1006e000980007009f00330003866c006450e1000f
:1006f0002e0032006420e100330032006150e1003e
:100700002f0032006120e100310032008585550064
:10071000eb07b000090020000804200005003700a6
:100720000804440089844c000a0031000603430099
:1007300087834b000001530081815b00f8ff330089
:100740000203be000800a0000804440089844c0095
:10075000f6ff3900c639dd00830173000100320065
:10076000130020008904d1000884d3000998a30055
:10077000050032000800a7000300a0008904d10092
:100780000884d3008b05e8008904d1000884d300d5
:100790000001eb000281d2002f00070001f0a10050
:1007a0000cf0a70001f0a000770037006420e10002
:1007b000790032000801be000200be00f7ff3700da
:1007c0006120e100740032006000b800f3ff3700e0
:1007d0000000200001f82700f0ff3700140020007f
:1007e000a4003700f4ff2f00a20037000001be0074
:1007f0003f0007000470a70003f0a10003f8a30066
:1008000013003a006509b1001000320009003500fc
:100810006928e10002003500010028000000050001
:1008200000004000818048008502e900fcff3a009a
:1008300000000600f88f4200050035008100d1005d
:100840000080d3008502e800fcff3a0000000600ab
:100850008000eb0000000500810020006180550051
:100860000b003d000b00200061fe2f000100e100a5
:100870001d00340082817100610164008904d1008f
:100880000884d3000000e800faff3a00710020005d
:100890006100640003007000020060000900320083
:1008a00061044400e0844c000988a5000500320082
:1008b0008b05e8006808e10002003a008904d100d5
:1008c0000884d300f20f20000258e10005003d002b
:1008d000c75ddd00f907b200898075000800780067
:1008e000000006000bf827008b00780000000500d0
:1008f000c70ade00f107b200f50fb20008003200af
:10090000e1cf4200020032000170a0002400050087
:10091000810f70000100320004080500440005004a
:10092000810f700002003a00140005008502e90002
:100930000000400081c04800fcff3b000170a000a7
:10094000240005000004be00e9ff07000003be000c
:100950000405be000200be00e5ff0700844f7500dd
:10096000000006000200be006450e10005003600f1
:100970006420e100020036000968a30001003a008b
:100980000800be000160a0004f0678004f05be00c1
:100990004f04be0000000600f0ff2f00f1ff27000b
:1009a000f9ff3700889fbe008a9fbe008c1f780029
:1009b000e4ff0700ebff330003866c006450e100a6
:1009c000240032006420e100270032006150e10081
:1009d000220032006120e100210032008b854200bc
:1009e000eb07b1000134b800003ab8000804420037
:1009f00089844a00013ab8000030b800888040007d
:100a000009014a00040033000000400081804800d2
:100a1000020149008b05e900c909dd00830170006e
:100a20000100320013002000c814de004814dd006d
:100a30004709de001200b200c808de00088470001a
:100a400085ff070001f0a1000cf0a70001f0a00055
:100a5000cdff37006120e100cfff32000801be006a
:100a60000200be00f7ff37006150e100fcff3a00d2
:100a7000c9ff3700889fbe008a9fbe00841f780090
:100a8000b0ff07004f00780011003300f0ff2f0087
:100a9000838f6c0006003b00040565000a00a70078
:100aa0000800370009f0a6001000200008003700f9
:100ab000820f5400838f5c00030039001000200077
:100ac00001003e000000200009f0a7000000ea003d
:100ad0004f05be004f04be000000e000000006000d
:020000040000fa
:100ae0000000fa003400070039000700cc000700be
:100af0000b030700020007000080fa000000060058
:100b00000000fa0071e7a80071c7a80071a7a8004b
:100b10007187a8007167a8007147a8007127a90014
:100b200070e7a80070c7a80070a7a8007087a80089
:100b30007067a8007027a8007007a80073e7a800d6
:100b400073c7a8007327a8007267a8007247a8009f
:100b50007227a8007207a8007547a8007527a8008b
:100b60007507a80074e7a80074c7a80074a7a800b8
:100b70007487a9000080fa00000006000000fa0057
:100b800005e1a9000421a90004c1a90020088000f2
:100b90000040a0000050a000200888000021ef00c5
:100ba000e0302000100888008460a9009460a8004c
:100bb0000080fa00000006000000fa00a0fb2c00f4
:100bc000210020005b0307000080fa0000000600ff
:100bd0000000fa0021e3a9002c03a8002c23a800a0
:100be0002c43a8002c63a8002c83a8002ca3a800e9
:100bf0002cc3a8002ce3a8002d03a800c801a9005d
:100c0000c881a900c821a900c8a1a900c841a9009c
:100c1000c8c1a900c002a9006040a9006840a9009d
:100c2000c022a9006060a9006860a900c042a800b5
:100c3000c062a90063a0a9006ba0a900c082a9009e
:100c40006000a9006800a900c0e2a900c102a900d3
:100c5000c122a900c142a900c802a9006080a90060
:100c60006880a900c822a90060a0a90068a0a90006
:100c7000c842a90060c0a90068c0a900c862a90054
:100c800060e0a90068e0a900c882a9006020a9006e
:100c90006820a900c8a2a9006360a9006b60a90030
:100ca000c8c2a8006300a9006b00a900c8e2a800a0
:100cb00062e0a9006ae0a900c902a90062c0a90017
:100cc0006ac0a900c922a80062a0a9006aa0a90060
:100cd000c942a9006200a9006a00a900c962a9006e
:100ce00061e0a90069e0a900c982a90061c0a9006a
:100cf00069c0a900c9a2a90061a0a90069a0a900b2
:100d0000c9c2a8006180a9006980a900c9e2a90040
:100d10006160a9006960a900d002a9006100a90072
:100d20006900a900d022a8006120a9006920a900bb
:100d3000d042a9006140a9006940a900d062a90081
:100d40006380a9006b80a900d082a8006320a9005d
:100d50006b20a900d0a2a8006340a9006b40a900a5
:100d6000d0c2a9006240a9006a40a900d0e2a80050
:100d70006220a9006a20a900d102a8006280a9000f
:100d80006a80a900d122a8006260a9006a60a90057
:100d9000c402a900c422a900c462a900c482a90097
:100da000c4e2a900c502a900c522a900c542a90044
:100db000cc02a900cc22a900cc42a900cc62a90097
:100dc000cc82a900cca2a900ccc2a900cce2a90087
:100dd000cd02a900cd22a900cd42a900cd62a90073
:100de000cd82a900cda2a900cdc2a900cde2a90063
:100df000d402a900d422a900d442a900d462a90037
:100e0000d482a900d4a2a900d4c2a900d4e2a90026
:100e1000d502a900d522a9000080fa000000060032
:100e20000000fa0083e0a9008200a9008220a90046
:100e30008240a90085c0a90085a0a9008580a900dd
:100e40008560a9008540a9008520a9008500a9002a
:100e500084e0a90084c0a90084a0a9008480a9001e
:100e60008460a9008440a9008420a9008400a9000e
:100e700087e0a90087c0a90087a0a9008780a900f2
:100e80008760a9008740a9008720a9008700a900e2
:100e900086e0a90086c0a9008680a9008660a90016
:100ea0008640a9008620a9008600a90089c0a90063
:100eb00089a0a9008880a9008860a9008840a900ad
:100ec0008820a9008800a9008be0a9008bc0a90098
:100ed0008ba0a9008b40a9008b20a9008de0a90060
:100ee0008dc0a9008d60a9008d40a9008d20a900aa
:100ef0008cc0a9008ca0a9008c80a9008c60a900de
:100f00008c40a9008c20a9002005800000c0a10011
:100f100000d0a10000e0a10020058800200580008d
:100f20000080a1000090a10000a0a1002005880081
:100f3000200580000040a1000050a1000060a10039
:100f400020058800200580000000a1000010a100fd
:100f50000020a100200588003005800000c0a1000d
:100f600000d0a10000e0a10030058800300580001d
:100f70000080a1000090a10000a0a1003005880021
:100f8000300580000040a1000050a1000060a100d9
:100f900030058800300580000000a1000010a1008d
:100fa0000020a100300588004005800000c0a1009d
:100fb00000d0a10000e0a1004005880040058000ad
:100fc0000080a1000090a10000a0a10040058800c1
:100fd000400580000040a1000050a1000060a10079
:100fe00040058800400580000000a1000010a1001d
:100ff0000020a10040058800500580000080a1006d
:101000000090a10000a0a1005005880050058000bc
:101010000040a1000050a1000060a1005005880020
:10102000500580000000a1000010a1000020a100d8
:10103000500588006005800000c0a10000d0a1001c
:1010400000e0a10060058800600580000040a1006c
:101050000050a1000060a1006005880060058000cc
:101060000000a1000010a1000020a1006005880080
:101070007005800000c0a10000d0a10000e0a10028
:1010800070058800700580000080a1000090a1001c
:1010900000a0a10070058800700580000000a1007c
:1010a0000010a1000020a1007005880080058000cc
:1010b00000c0a10000d0a10000e0a10080058800d0
:1010c000800580000080a1000090a10000a0a10088
:1010d00080058800800580000040a1000050a1002c
:1010e0000060a10080058800800580000000a1004c
:1010f0000010a1000020a10080058800900580005c
:1011000000c0a10000d0a10000e0a100900588006f
:10111000900580000080a1000090a10000a0a10027
:1011200090058800900580000040a0000050a000bd
:101130000060a00090058800900580000000a100dc
:101140000010a1000020a10090058800a0058000eb
:1011500000c0a10000d0a10000e0a100a00588000f
:10116000a00580000080a1000090a10000a0a100c7
:10117000a0058800a00580000040a1000050a1004b
:101180000060a100a0058800a00580000000a1006b
:101190000010a1000020a100a0058800b00580007b
:1011a0000000a1000010a1000020a100b0058800ef
:1011b000d00580000080a1000090a10000a0a10047
:1011c000d0058800d00580000040a1000050a1009b
:1011d0000060a100d0058800000680000080a1000a
:1011e0000090a10000a0a100000688000006800079
:1011f0000040a1000050a1000060a100000688008e
:101200001006800000c0a10000d0a10000e0a100f5
:1012100010068800100680000080a1000090a10048
:1012200000a0a10010068800100680000040a10068
:101230000050a1000060a100100688002006800078
:101240000080a1000090a10000a0a100200688005d
:10125000200680000040a1000050a1000060a10015
:10126000200688002006800000c0a10000d0a10058
:1012700000e0a10020068800300680000080a10068
:101280000090a10000a0a100300688003006800078
:101290000040a1000050a1000060a10030068800bd
:1012a000300680000000a1000010a1000020a10075
:1012b000300688004006800000c0a10000d0a100d8
:1012c00000e0a10040068800400680000080a100e8
:1012d0000090a10000a0a100400688004006800008
:1012e0000040a1000050a1000060a100400688005d
:1012f0005006800000c0a10000d0a10000e0a100c5
:1013000050068800500680000080a1000090a100d7
:1013100000a0a1005006880095c0a90095a0a900d2
:101320009580a9009560a9009540a9009520a90085
:101330009500a90094e0a90094c0a90094a0a90078
:101340009480a9009460a9009440a9009420a90069
:101350009400a90097e0a90097c0a90097a0a90050
:101360009780a9009760a9009740a9009720a9003d
:101370009700a90096e0a90096c0a9009680a90050
:101380009660a9009620a9009600a90099c0a9001e
:1013900099a0a9009880a9009860a9009840a90088
:1013a0009820a9009800a9009be0a9009bc0a90073
:1013b0009ba0a9009b40a9009b20a9009de0a9003b
:1013c0009dc0a9009d60a9009d40a9009d20a90085
:1013d0009cc0a9009ca0a9009c80a9009c60a900b9
:1013e0009c40a9009c20a9000080fa000000060093
:1013f0000400fa00881f7800000f78001107980099
:10140000b7fd070080a823008103200049010700e1
:101410000500370000000000030037000000000056
:10142000010037000000000091168000002020001d
:10143000008060000000e00004003a00cd82a900b6
:10144000e0922000b02e880003003700cd82a80073
:1014500000642000b02e880091168000001020004b
:10146000008060000000e00009003a009116800052
:1014700000082000008060000000e00004003a0046
:101480000041eb006000b800da000700a30037005d
:101490009116800000102000008060000000e00035
:1014a0000a003200911680000008200000806000d1
:1014b0000000e000050032000041eb0000002000c9
:1014c000812c2400cb000700940037009116800087
:1014d00000102000008060000000e00045003a009d
:1014e0009116800000082000008060000000e000ed
:1014f0004000320000c8bf00e14f500024003a0015
:10150000104080002140800018c0b300020020007d
:10151000832c2400b1fc07000000e000010035002e
:101520000044eb000804e000190032001040800085
:1015300021408000a2702d0033ba230008fc070070
:101540001040880021408800104080002140800029
:101550000041eb00a7000700104080002140800000
:1015600018c0b30002002000832c24009dfc07005b
:101570000000e00001003d000044eb000804e00032
:101580000200320000c0eb0000e8b700180037008e
:101590001040800021408000a2702d0033ba23004b
:1015a000eefb0700104088002140880010408000ba
:1015b000214080000041eb008e00070010408000b9
:1015c0002140800018c0b300020020000312240054
:1015d00082fc07000000e000010034000044eb0042
:1015e0000804e0000200320010c0b30000e8b700b9
:1015f0004a00370091168000001020000080600033
:101600000000e00083ff32009116800000082000f7
:10161000008060000000e00080ff3a0006c8bf00c4
:10162000e14f500024003a004040800051408000cb
:1016300018c0b30002002000832c240067fc0700c0
:101640000000e000010035000044eb000804e00069
:10165000190032004040800051408000d2cc2c0064
:10166000c3d42300befb07004040880051408800df
:1016700040408000514080000041eb005d000700c9
:10168000404080005140800018c0b300020020009c
:10169000832c240053fc07000000e00001003d0003
:1016a0000044eb000804e0000200320000c0eb0040
:1016b00006e8b70019003700404080005140800024
:1016c000d2cc2c00c3d42300a4fb070040408800e8
:1016d0005140880040408000514080000041eb00b4
:1016e00044000700404080005140800018c0b30013
:1016f00002002000030a240038fc07000000e0007c
:10170000010034000044eb000804e00045ff320013
:1017100010c0b30006e8b70043ff370042ff3700b0
:101720000000fa00c1e1a800c1e5a800c1a1a8001d
:10173000000e80000040a1000050a1000060a10048
:101740000070a100000e8800000e80000020a100a3
:101750000030a100000e8800c1a5a800002e800066
:101760000040a1000050a1000060a1000070a10095
:10177000002e8800002e80000020a0000030a10074
:10178000002e8800000e80000000a1000010a100c3
:10179000000e8800002e80000000a1000010a100b3
:1017a000002e8800703e2000200e8800807f2400dc
:1017b000202e8800c901a800c921a800c941a8009d
:1017c000c905a800c881a800c801a900c8a1a9002e
:1017d000c821a900c8c1a900c841a900c885a8009e
:1017e000c805a900d621ef00d821ef000080fa003b
:1017f000000006000600fa00881f7800008fbe0077
:101800004247980018c0b30002002000832c240037
:101810001e00be00f3fb07000000e00001003c00da
:101820000044eb000804e000040032000000200047
:10183000812c2400008fbe000b00370018c0b300bd
:101840006011b8001e00be00e4fb07000000e000cd
:10185000010035000044eb000804e0000200320003
:101860006000b800008fbe004e409000e14f500075
:1018700021003a0002002000832c24001e00be003c
:1018800094fb0700008fbe000200200003f8230035
:101890001e00be0032fb0700008fbe0002002400c5
:1018a000634e24001e00be003efc0700008fbe00f9
:1018b00018c0b30002202f00f37024001e00be00e9
:1018c000c8fb07000000e00001003c000044eb0002
:1018d0000804e0000300320000202f00f170240013
:1018e000008fbe001e00be00c0fb07000000780095
:1018f000b02e88000c0037004e4090000004e0003d
:1019000009003a0002002000031a24001e00be0055
:1019100024fc0700008fbe001e00be00b3fb0700c2
:1019200000007800b00e88004f0478000080fa00b4
:0419300000000600ad
:020000040000fa
:10193400f03fb1000180b10006003500ee0309005c
:1019440000000000403fb1000180b100fbff3d00fa
:101954001000b000203fb0000200350000800900f4
:08196400000000000000060075
:020000040000fa
:10196c00000800000c000000020000000100000054
:10197c00002041000100000000a040000000000019
:020000040000fa
:0200000401f009
:04000000cf0000002d
:020000040000fa
:0200000401f009
:04000400cf00000029
:020000040000fa
:0200000401f009
:0400080007000000ed
:020000040000fa
:0200000401f009
:04000c0000000000f0
:020000040000fa
:0200000401f009
:0400100047000000a5
:020000040000fa
:0200000401f009
:040014005f00000089
:020000040000fa
:0200000401f009
:04001800e7000000fd
:020000040000fa
:0200000401f009
:04001c00deff000003
:00000001FF
